:1027F800E4900008F0A3F012381B7FB87E0B12009B
:1028080003123FF37F071231301225701240407EC9
:10281800007F047D017B017A007963121DF8900026
:10282800687401F0C3900009E09428900008E094CF
:10283800235016E475F001121B61900008E0700443
:10284800A3E064027003123446D3900009E09402B6
:10285800900008E09400500302290E7B017A007969
:1028680004122F57EF700302290E900069E06003ED
:1028780002290E900004E0FFA3E090006ACFF0A3C5
:10288800EFF0900006E0FFA3E090006CCFF0A3EF1C
:10289800F0900068E014601704702590000074013F
:1028A800F0A37466F0A37401F0A37475F08011901E
:1028B8000000E4F0A37478F0A37401F0A374F4F0BA
:1028C800900000E0FEA3E0FF90006AE0FCA3E0FDBA
:1028D800C39FEE6480F8EC6480985007E490006E23
:1028E800F08023900002E0FEA3E0FFC3ED9FEE64BA
:1028F80080F8EC648098500890006E7401F08006AF
:1029080090006E7402F0123CC61212461240850204
:02291800282C69
:01291A00229A
:0C405E00484F4C44005245432000665D72
:103BC600490067000000000000000000420061009C
:103BD60000410059FF44005A0000000041005EFF0A
:083BE60041005FFF410060FF98
:10000300EF1FAC0670011E4C601B90000AE4F0A3C6
:10001300741EF090000A74FFF5F0121B7745F06030
:05002300DF80F080DB2E
:0100280022B5
:10381B0053B3F753B4F7D29353B3BF53B4BFD2964A
:10382B0053B1FB53B2FBD28253ACFE43AD01D2B0CA
:10383B0053B37F43B480D29753B1EF43B210C284DA
:10384B0053B1FD43B202C28153B1F743B208C283F5
:10385B0053B1DF43B220C28543B30253B4FD53B31C
:10386B00DF53B4DFD29553B3FB53B4FBD29253B3B4
:10387B00F743B408D29343B31043B410D29453B369
:07388B00FE43B401C29022CC
:0A406A00C2EFD2EE30EFFDAFC3222B
:103CC60012406AAB07900059E06B703B90406893D6
:103CD600FFEBD39F400890006F7415F08029904049
:103CE60069E493FFEBD39F4019EB9FFFE49400FE3A
:103CF6007C007D05121B4FEEC313EF1390006FF08F
:0C3D06008005E490006FF0900059EBF095
:013D1200228E
:10313000EF121DD2315000316501317D023194030F
:1031400031AB0431C20531D90631F0070000320538
:1031500053E8F043B38053B47FE4F5F643F60143FC
:10316000E10102320553E8F043E80143AC0153ADFD
:10317000FEE4F5F643F60243E10102320553E8F0BE
:1031800043E80243B18053B27FE4F5F643F60443CB
:10319000E101807153E8F043E80343B14053B2BF0B
:1031A000E4F5F643F60843E101805A53E8F043E8BA
:1031B0000443B12053B2DFE4F5F643F61043E101D6
:1031C000804353E8F043E80543B11053B2EFE4F510
:1031D000F643F62043E101802C53E8F043E8064330
:1031E000B10853B2F7E4F5F643F64043E101801528
:1031F00053E8F043E80743B30253B4FDE4F5F64364
:09320000F68043E10112406A224C
:0C397900900018121D6C90001C121DC95B
:10398500E4900020F090001FE0FFA3E0C39F505299
:10399500E47B0AFAF9F8900018121D34121C53AF93
:1039A5000390001FE024FFFDE434FFFCA3E0FBC30C
:1039B500ED9BFDEC9400FC90001C121DA98D828CE2
:1039C50083EF121B2D900018121D34E47B0AFAF9BF
:1039D500F8121C53900018121D6C900020E004F0A2
:0239E50080A3BD
:0139E70022BD
:0F4040007F807E4712407D900067EFF07F012266
:09407400900061E4F0A3EFF022DA
:103FBE00900067E09000C8F07B017A0079C890000D
:0B3FCE00E17401F07F807E47122C5F41
:013FD90022C5
:103D1300D3900062E09400900061E09400403B7B0C
:103D2300017A00795A7F327E007D007C00123612C0
:103D3300EF64014E70247B017A00795AFFFEFDFC8B
:103D430012361290006174FFF5F0121B619000614E
:0A3D5300E07002A3E07003123FBE0F
:013D5D002243
:104030007E007F047D017B017A007963121DF822E6
:0B291B00900018EFF0A3EDF0A3EBF02C
:10292600A3E0603B7BFF7A0E7906900018E0FD7C01
:1029360000A3E0FF900029E4F0A3EFF0900018E078
:10294600241FFEE43390002BF0A3CEF0900019E094
:102956002410FEE43390002DF0A3CEF0123209903D
:10296600001AE0D394137480948040037415F09099
:102976000018E02404FFE433FE90001CF0FAA3EFF5
:10298600F0FB90001AE07E002BFFEE3A900020F05C
:10299600A3EFF0900019E0FD7C002404FEEC3390D8
:1029A600001EF0A3CEF0ED240CFEEC33900022F0D6
:1029B600A3CEF0AF03AE02C00790001EE0FCA3E07A
:1029C600FDA3E0FAA3E0FBA3E0FFA3E090002ACF7B
:1029D600F0A3EFF0A374D6F0A3749AF0D0071236E2
:1029E6009F90001AE0C3941574809480504690001E
:1029F60020E0FEA3E0FF90001CEEF0A3EFF09000B5
:102A060018E02419FDE433FC900020F0FAA3EDF061
:102A1600FBC00790001EE0FCA3E0FD900022E0FF53
:102A2600A3E090002ACFF0A3EFF0E4A3F0A3F0D048
:042A36000712369FAE
:012A3A002279
:10124600900063E070030212CD90000A7438F0E457
:10125600A3F0900068E014601214601A2402701F54
:1012660090000E740AF0A304F0801490000E74012E
:10127600F0A304F0800990000E7403F0A304F0902C
:10128600000AE0FF7E00A3E0FD7C0090000EE0FB7C
:1012960090001D7418F0A374FFF0A374E0F01226FA
:1012A600BD90000AE02418F0E0FF7E00A3E0FD7C7C
:1012B6000090000FE0FB90001D7418F0A374FFF07F
:1012C600A374E0F01226BD900065E0602590000A48
:1012D600740AF0A37416F090000AE0FF7E00A3E003
:1012E600FD7C0090001D74FFF0A3747CF07B0D1252
:1012F6002B51900060E0FF900069E0FEB507069074
:101306000065E0605290000A740CF0A37404F0EEDD
:10131600602690000AE0FF7E00A3E0FD7C007BFFD4
:101326007A40795E74FF90001FF0A3F0A3E4F0A367
:10133600741FF0123584801F90000AE0FF7E00A320
:10134600E0FD7C007BFF7A40796390001F74F8F023
:10135600A3741FF0123721900069E060067EFF7FBC
:10136600FF80047E7F7FFF900016EEF0A3EFF090E3
:10137600000A7422F0A37416F090006AE0FEA3E05F
:10138600FFD39400EE64809480402A900014EEF01F
:10139600A3EFF090000AE0FF7E00A3E0FD7C009042
:1013A6000016E0FBA3E090001DCBF0A3EBF07B0C56
:1013B600122B51803590006AE0FEA3E0FFC3E49F44
:1013C600FFE49E900014F0A3EFF090000AE0FF7E89
:1013D60000A3E0FD7C00900016E0FBA3E090001D5A
:1013E600CBF0A3EBF07B0B122B51900014E0FEA385
:1013F600E0FFE4FCFD7B017A00790E90001F740487
:10140600F012397990000AE02411F0A37416F090D6
:10141600000EE0FB602490000AE0FF7E00C007A3F8
:10142600E0FD7C00900016E0FFA3E090001DCFF0E9
:10143600A3EFF0D007122B51803290000AE0FBFF99
:101446007E00C006C007A3E0F9FD7C00EB2410FB7C
:10145600EE33FAE92420FFEE3390002AF0A3EFF0F2
:10146600E4A3F0A3F0D007D00612369F90000AE05E
:101476002411F090000EE07004A3E0602990000AA9
:10148600E0FF7E00C007A3E0FD7C0090000FE0FBBC
:10149600900016E0FFA3E090001DCFF0A3EFF0D080
:1014A60007122B51803290000AE0FBFF7E00C00637
:1014B600C007A3E0F9FD7C00EB2410FBEE33FAE94C
:1014C6002420FFEE3390002AF0A3EFF0E4A3F0A36C
:1014D600F0D007D00612369F90000AE02411F0E003
:1014E600FF7E00C007A3E0FD7C00900010E0FB90AB
:1014F6000016E0FFA3E090001DCFF0A3EFF0D007A9
:10150600122B5190000AE02411F0900065E0700C57
:10151600900060E0FF900069E06F602090000AE0B4
:10152600FF7E00A3E0FD7C00900016E0FBA3E090A8
:10153600001DCBF0A3EBF07B0A122B5190000AE0C2
:101546002409F0E0FF7E00C007A3E0FD7C009000C8
:1015560011E0FB900016E0FFA3E090001DCFF0A382
:10156600EFF0D007122B5190000AE02412F0900001
:1015760065E0700C900060E0FF900069E06F602607
:1015860090000AE0FF7E00A3E0FD7C0090001D7441
:1015960020F0900016E0FBA3E090001ECBF0A3EB3A
:1015A600F0E4FB1226BD90006CE0FEA3E0FFD394AE
:1015B60000EE648094804002800F90006CE0FEA3F1
:1015C600E0FFC3E49FFFE49EFE900014EEF0A3EF5D
:1015D600F0E4FCFD7B017A00790E90001F7404F0A4
:1015E60012397990000A744CF0A37438F0A3744C45
:1015F600F0A37438F0900065E0605790000AE0248C
:1016060002FFE433FEA3E02402FDE433FC90001D58
:101616007410F0A374C7F0A3741FF0E4FB1226BD88
:1016260090000AE02410F0E02402FFE433FEA3E079
:101636002402FDE433FC90001D7410F0A374C7F07F
:10164600A3741FF07B011226BD90000AE02410F05F
:10165600800790000AE02420F090000AE02404F0BD
:10166600A3E02402F0D390006DE0940090006CE0BB
:101676006480948040047F2B80027F2D900014EFBD
:10168600F0FB90000AE0FF7E00A3E0FD7C00E49002
:101696000026F0A374C7F0A3741FF01222919000E5
:1016A6000AE02408F090000EE0FB602790000AE0B4
:1016B600FF7E00A3E0FD7C00EB2430FBE4900026D7
:1016C600F0A374C7F0A3741FF012229190000AE0F1
:1016D6002408F090000EE07004A3E0602A90000A4F
:1016E600E0FF7E00A3E0FD7C0090000FE02430FBCD
:1016F600E4900026F0A374C7F0A3741FF0122291A1
:1017060090000AE02408F090000AE0FF7E00A3E0C3
:10171600FD7C00900010E02430FBE4900026F0A34E
:1017260074C7F0A3741FF012229190000AE02408F7
:10173600F0E0FF7E00A3E0FD7C00E4900026F0A32D
:1017460074C7F0A3741FF07B2E12229190000AE05A
:101756002408F0E0FF7E00A3E0FD7C00900011E08D
:101766002430FBE4900026F0A374C7F0A3741FF0A6
:1017760012229190000AE02408F090000CE0245414
:10178600FFE433FE90000AE0FDC39FEE6480F87428
:1017960080985024EDFF7E00A3E0FD7C00E49000DD
:1017A60026F0A374C7F0A3741FF07B201222919039
:1017B600000AE02408F080C290000A740AF0A374BC
:1017C60035F0900065E0700F90006EE0FF90005FCE
:1017D600E06F70030218EB900068E0FF7E00705423
:1017E60090006EE014602014603224026003021838
:1017F6008D90000E7407F0A304F090001674F8F0B4
:10180600A3741FF002188D90000E7405F0A304F067
:1018160090001674C7F0A374ECF0806B90000E7401
:1018260007F0A37409F090001674FFF0A374E0F0BB
:1018360080558053EF64014E704D90006EE0146049
:101846001D14602F2402703F90000E7408F0A374DC
:101856000BF090001674F8F0A3741FF08029900026
:101866000E740CF0A314F090001674C7F0A374EC79
:10187600F0801490000E7409F0A3740BF09000161B
:1018860074FFF0A374E0F090000AE0FF7E00C0074A
:10189600A3E0FD7C0090000EE0FB90001D7418F0A4
:1018A600900016E0FFA3E090001ECFF0A3EFF0D06B
:1018B600071226BD90000AE02418F0E0FF7E00C063
:1018C60007A3E0FD7C0090000FE0FB90001D74185C
:1018D600F0900016E0FFA3E090001ECFF0A3EFF01B
:1018E600D0071226BD900066E0700C90006FE0FFF6
:1018F60090005EE06F603B90000A747CF0A3740475
:10190600F090006FE0FBD394157480948050239080
:10191600000BE0FD90005EE0F470047E0180027E24
:1019260000900065E04E90001BF090000AE0FF1268
:10193600291B90006EE090005FF090006FE0900031
:101946005EF0900069E0900060F07E007F047D000C
:091956007B017A007963121DF88F
:01195F002265
:073BEE004400F70000000095
:103FF3007FFF7E8253C98F53C8FE43C9808FCAEEA9
:07400300F5CB439B80D2CAFC
:01400A002293
:03409800C2CA2277
:03409B00D2CA2264
:0E404F007F007E007D007C009000F7121D3483
:01405D002240
:0C3612009000A2121DC99000A5121D6CB2
:10361E009000A9121D78000000009000AD121D78D8
:10362E0000000000E4FFFEFDFC9000A5121D40C34B
:10363E00121D09701112404F9000A2121DA9121DE9
:10364E001A7E007F012212404F9000AD121D6C9029
:10365E0000A2121DA9121D4C9000AD121D34121B9A
:10366E00BA9000A9121D6C9000A5121D349000A9ED
:10367E00121D40C3121D0940149000AD121D34904E
:10368E0000A2121DA9121D1A7E007F0122E4FEFF68
:01369E002209
:03002B00023D5E35
:103D5E00C0E0C0F0C083C082C0D075D000C000C02B
:103D6E0004C005C006C007C2CF9000F7121D34EF85
:103D7E002401FFE43EFEE43DFDE43CFC9000F7121E
:103D8E001D6CD007D006D005D004D000D0D0D08284
:073D9E00D083D0F0D0E03229
:10002E000000000000000000000000000000E007DB
:10003E00F81F3C3C1E780E700EF007E007E007E05C
:10004E0007E007E007E007E007600E700E703C3C2B
:10005E00F81FE00700000000000000000000000094
:10006E000000000000000000000000000000800101
:10007E00FC01FF01C701C001C001C001C001C001E8
:10008E00C001C001C001C001C001C001C001C0015A
:10009E00FF7FFF7F00000000000000000000000056
:1000AE000000000000000000000000000000E00F53
:1000BE00FC3F1E7802F000E000E000E000700070EF
:1000CE00003C001E000F8003E00170003C001E008B
:1000DE00FFFFFFFF00000000000000000000000016
:1000EE000000000000000000000000000000F80307
:1000FE00FE0F061E003800380038001C000EF807F0
:10010E00F80F003E00380070007000700038033E9B
:10011E00FF0FFC03000000000000000000000000C4
:10012E000000000000000000000000000000001EA3
:10013E00001F801FC01DE01C701C381C1C1C1C1CCA
:10014E000E1C071C031CFFFFFFFF001C001C001CE5
:10015E00001C001C00000000000000000000000059
:10016E000000000000000000000000000000FC3F46
:10017E00FC3F1C001C001C001C001C00FC07FC1F8C
:10018E00003E007800700070007000700038063E6F
:10019E00FE0FF80300000000000000000000000049
:1001AE000000000000000000000000000000801FA2
:1001BE00F03F78201C000E000E000600C70FF73F20
:1001CE001F780FF007E007E007E006E00E703C78BE
:1001DE00F81FE00700000000000000000000000013
:1001EE000000000000000000000000000000FFFF03
:1001FE00FFFF007000380038001C001C000E000EBF
:10020E00000780078003C003C001E000E00070001B
:10021E007000380000000000000000000000000028
:10022E000000000000000000000000000000E00FD1
:10023E00F83F3C380E700E700E701C38381EF00FE2
:10024E00F00F7C3E1E780FF007E007E00FF01E78EF
:10025E00FC3FF00F00000000000000000000000056
:10026E000000000000000000000000000000E00799
:10027E00F81F1E3C0E70076007E007E007E00EF067
:10028E001EF8FCEFF0E70060007000700038061EEC
:10029E00FE0FFC0100000000000000000000000046
:1002AE000000000000000000000000000000000040
:1002BE000000000000000000000000000000000030
:1002CE0000000000000000000000000000001E0002
:1002DE001E001E00000000000000000000000000D4
:1002EE000000000000000000000000000000000000
:1002FE000000000000000000000000000000FF3FB2
:10030E00FF3F0000000000000000000000000000A1
:10031E0000000000000000000000000000000000CF
:10032E0000000000000000000000000000000000BF
:10033E0000000000000000008003800380038003A3
:10034E008003FFFFFFFF8003800380038003800391
:10035E00000000000000000000000000000000008F
:10036E0000000000000000000000E0071008100868
:10037E0090099009900990099009900990099009A7
:10038E0090099009900990098811C423E247E24729
:10039E00C24384210810F00F00000000000000008E
:1003AE00000000000000000000000000000000003F
:1003BE0040000000B0013F0010C1C30010610007F3
:1003CE0010310006E018000400180004000C0004B0
:1003DE00000C0004000C0004000C0000000C0000D7
:1003EE00000C0000000C0000000C0000000C0000CF
:1003FE00000C0000001C0000001800000038000473
:10040E000070000200E0800100C0FF0000001F002D
:10041E0000000000000000000000000000000000CE
:10042E00FFFF7F01004001844721CA4C216A482109
:10043E002450FD31502130402130402120580160A0
:10044E0058FDC14C0180470100407DA15005A350CD
:10045E0005A55005A5507DA9590529490531497DA8
:10046E002146010040FFFF7F000000000000000059
:10047E00000000000200C084FFCC9CC1CC88C1CC1F
:10048E0080D9CC83D9CC8ED9CC98D9CC80D9CC80FC
:10049E00D9CC88D9CC98CDCC0C0CCC0C36C00C63F6
:1004AE00C0C6C1C074807D000000000000000000C6
:1004BE00000000000000000000000000000000F836
:1004CE00FF0F18000CF8FF0F18000CF8FF0F0000BC
:1004DE0000FFFFFF180C0CF8FF0F180C0CF8FF0FA5
:1004EE00000C00FEFF3F000C00FFFFFF00000000AD
:1004FE0000000000000000000000000000000000EE
:10050E00000000000200000CFF3F18003010003009
:10051E000000300000301F003018FE3F1806301863
:10052E0006001806001806001806C09806C05806E1
:10053E00C03806600CFC3F00000000000000000008
:10054E00000000000000000000000000000000F8A5
:10055E00FF0F00000C00000CF8FF0F00000C000055
:10056E000CFFFFFF0018000C183070381C405807A5
:10057E00009B01E018031C181C0318E0C00F0000BC
:10058E00000000000000000000000000000000005D
:10059E0000000000000000FFFF7F001800001800A0
:1005AE0000180018180018180018180018F83F182E
:1005BE001800181800181800181800181800181825
:1005CE0000FFFFFF00000000000000000000000020
:1005DE00000000000000000000000000180C187061
:1005EE000C0E200C03FFFF7F030060F3FF6F300043
:1005FE000C30000CF0FF0F30180C001800FEFF3FFF
:10060E0006183006183006183006181F001800009D
:10061E0000000000000000000000000000000000CC
:10062E0000000000010006020006060006C4FFFFDF
:10063E000000068000060F01060C03060C06060CD1
:10064E000C060C08060C00060C00060CF0031F002E
:10065E0000730000C1FFFF0000000000000000005A
:10066E0000000000000000000000000060007C3070
:10067E00FF073083011883010C83010E83010EFFE7
:10068E00FF0D83010C03030C03030C03030C03C3C4
:10069E000C63C60C3BC60C674C8C817100000000CD
:1006AE00000000000000000000000000000000003C
:1006BE0000000C00001800FFFF7F000000F0FF0795
:1006CE00300006300006F0FF07300006000000FE86
:1006DE00FF3F060030C6FF31C68031C68031C6FFEF
:1006EE0031C6003006801F00000000000000000030
:1006FE000000000000000000000000003060003824
:10070E006000186000186000CCFF7F0CF8010E68C6
:10071E00010F6C030D66020C63060C630CCC6118A2
:10072E006CFE773C60C00C60000C60000C6000003A
:10073E0000000000000000000000000000000000AB
:10074E00000000000300001CFF1F10031800FF1F15
:10075E000103180FFF1F08031800000080FF3F8CD5
:10076E0019338C1933861933861933861933861942
:10077E0033F3FFFF03000000000000000000000044
:10078E000000000000000000000000000018000043
:10079E001800001800001800FCFF7F0C18600C18E1
:1007AE00600C18600C18600C1860FCFF7F0C186051
:1007BE0000180000180000180000180000180000B3
:1007CE00000000000000000000000000000000001B
:1007DE0000000000000000000000000808080808E3
:1007EE00080800001818000000486C2412000000D1
:1007FE0000000000000000000000002424247F12EE
:10080E0012127F12121200000000081C2A2A0A0C73
:10081E001828282A2A1C080800000022251515155C
:10082E002A585454542200000000000C1212120ACE
:10083E0076252911916E00000006060403000000C3
:10084E000000000000000000004020101008080802
:10085E0008080810102040000002040808101010AC
:10086E0010101008080402000000000008086B1C9D
:10087E001C6B0808000000000000000008080808B3
:10088E007F080808080000000000000000000000BB
:10089E000000000006060403000000000000000037
:1008AE00FE0000000000000000000000000000003C
:1008BE0000000000060600000000804040202010CE
:1008CE0010080804040202000000001824424242EC
:1008DE004242424224180000000000080E08080898
:1008EE0008080808083E00000000003C4242422072
:1008FE0020100804427E00000000003C42422018F6
:10090E0020404042221C00000000002030282424F9
:10091E0022227E20207800000000007E0202021AB1
:10092E0026404042221C0000000000382402021A19
:10093E0026424242241800000000007E222210109F
:10094E0008080808080800000000003C4242422443
:10095E0018244242423C0000000000182442424249
:10096E0064584040241C00000000000000001818CD
:10097E000000000018180000000000000000000831
:10098E0000000000000808040000004020100804C9
:10099E0002040810204000000000000000007F004C
:1009AE0000007F000000000000000002040810207C
:1009BE0040201008040200000000003C4242464065
:1009CE0020101000181800000000001C225A555567
:1009DE0055552D42221C0000000000080818141462
:1009EE00243C224242E700000000001F2222221E69
:1009FE0022424242221F00000000007C42420101BE
:100A0E0001010142221C00000000001F224242424E
:100A1E0042424242221F00000000003F4212121EBC
:100A2E0012120242423F00000000003F4212121E0C
:100A3E0012120202020700000000003C22220101F5
:100A4E0001712122221C0000000000E742424242B6
:100A5E007E42424242E700000000003E08080808BD
:100A6E0008080808083E00000000007C1010101056
:100A7E00101010101010110F0000007722120A0E25
:100A8E000A12122222770000000000070202020260
:100A9E0002020202427F0000000000773636363630
:100AAE002A2A2A2A2A6B0000000000E346464A4AF8
:100ABE0052525262624700000000001C2241414126
:100ACE0041414141221C00000000003F424242428F
:100ADE003E020202020700000000001C22414141BA
:100AEE0041414D53321C60000000003F4242423EE5
:100AFE001212222242C700000000007C4242020471
:100B0E0018204042423E00000000007F49080808BD
:100B1E0008080808081C0000000000E74242424294
:100B2E0042424242423C0000000000E74242222480
:100B3E0024141418080800000000006B49494949A4
:100B4E005555362222220000000000E742242418C8
:100B5E001818242442E70000000000772222141403
:100B6E0008080808081C00000000007E2120101054
:100B7E0008040442423F00000078080808080808EC
:100B8E000808080808087800000002020404080893
:100B9E000810102020204040001E101010101010C1
:100BAE001010101010101E0000384400000000003D
:100BBE000000000000000000000000000000000027
:100BCE0000000000000000FF00060800000000000A
:100BDE000000000000000000000000000000003CCB
:100BEE004278444242FC0000000000030202021A56
:100BFE0026424242261A0000000000000000003883
:100C0E004402020244380000000000604040407878
:100C1E004442424264D80000000000000000003C44
:100C2E00427E0202423C0000000000F08808087E6E
:100C3E0008080808083E0000000000000000007CC4
:100C4E0022221C023C42423C000000030202023AF5
:100C5E004642424242E700000000000C0C00000E2B
:100C6E0008080808083E0000000000303000003878
:100C7E00202020202020221E0000000302020272EB
:100C8E00120A1612227700000000000E080808084B
:100C9E0008080808083E0000000000000000007F61
:100CAE009292929292B70000000000000000003B6A
:100CBE004642424242E70000000000000000003CB5
:100CCE0042424242423C0000000000000000001B75
:100CDE0026424242221E0207000000000000007859
:100CEE0044424242447840E0000000000000007799
:100CFE004C040404041F0000000000000000007CEF
:100D0E0042023C40423E0000000000000008083E47
:100D1E00080808080830000000000000000000630A
:100D2E004242424262DC000000000000000000E788
:100D3E00422424140808000000000000000000EB0C
:100D4E00494955552222000000000000000000769F
:100D5E0024181818246E000000000000000000E7A0
:100D6E004224241418080807000000000000007E2A
:100D7E0022100808447E000000C0202020202010F1
:100D8E00202020202020C000101010101010101055
:100D9E001010101010101010000608080808081087
:100DAE0008080808080806000C32C20000000000FF
:100DBE00000000000000000000000000BF7F0808D7
:100DCE000808080408043E16082588444844080408
:100DDE00380407040204000404010402C41F84083A
:100DEE001F05E47F0400C41F4410C41F4410DC1F01
:100DFE008704824440443078000000000000000068
:100E0E0000000000000000000000000000000000D4
:100E1E0000000000000000000000000000000000C4
:100E2E0000000000000000000000000000000000B4
:100E3E0000000000000000000000B2949AD69AD67E
:100E4E009AD69AD69AD69AD69AD69AD69AD69AD614
:100E5E009AD69AD69AD69AD69AD69AD69AD69AD604
:100E6E009AD69AD69AD69AD69AD69AD69AD679CE1D
:100E7E00EB5A0000000000000000BAD6DBDEDBDE1D
:100E8E00DBDEDBDEDBDEDBDEDBDEDBDEDBDEDBDE8C
:100E9E00DBDEDBDEDBDEDBDEDBDEDBDEDBDEDBDE7C
:100EAE00DBDEDBDEDBDEDBDEDBDEDBDEDBDEDBDE6C
:100EBE00D39C0000000000000000BAD6DBDE8A5290
:100ECE008210821082108210821082108210821084
:100EDE008210821082108210821082108210821074
:100EEE00821082108210821082108210518CDBDEF2
:100EFE00D39C0000000000000000BAD6DBDE2842C2
:100F0E0000000000000000000000000000000000D3
:100F1E0000000000000000000000000000000000C3
:100F2E000000000000000000000000001084DBDE66
:100F3E00D39C0000000000000000BAD6DBDE284281
:100F4E000000000000000000000000000000000093
:100F5E000000000000000000000000000000000083
:100F6E000000000000000000000000001084DBDE26
:100F7E00BAD618C6F39C00000000BAD6DBDE2842B3
:100F8E000000000000000000000000000000000053
:100F9E000000000000000000000000000000000043
:100FAE000000000000000000000000001084DBDEE6
:100FBE00DBDEDBDEDBDE00000000BAD6DBDE284245
:100FCE000000000000000000000000000000000013
:100FDE000000000000000000000000000000000003
:100FEE000000000000000000000000001084DBDEA6
:100FFE00DBDEDBDEDBDE00000000BAD6DBDE284205
:10100E0000000000000000000000000000000000D2
:10101E0000000000000000000000000000000000C2
:10102E000000000000000000000000001084DBDE65
:10103E00DBDEDBDEDBDE00000000BAD6DBDE2842C4
:10104E000000000000000000000000000000000092
:10105E000000000000000000000000000000000082
:10106E000000000000000000000000001084DBDE25
:10107E00DBDEDBDEDBDE00000000BAD6DBDE284284
:10108E000000000000000000000000000000000052
:10109E000000000000000000000000000000000042
:1010AE000000000000000000000000001084DBDEE5
:1010BE00DBDEDBDE79CE00000000BAD6DBDE2842B6
:1010CE000000000000000000000000000000000012
:1010DE000000000000000000000000000000000002
:1010EE000000000000000000000000001084DBDEA5
:1010FE0055AD6529A21000000000BAD6DBDE2842ED
:10110E0000000000000000000000000000000000D1
:10111E0000000000000000000000000000000000C1
:10112E000000000000000000000000001084DBDE64
:10113E00D39C0000000000000000BAD6DBDED7BD55
:10114E0055AD55AD55AD55AD55AD55AD55AD55AD81
:10115E0055AD55AD55AD55AD55AD55AD55AD55AD71
:10116E0055AD55AD55AD55AD55AD55AD38C6DBDEAE
:10117E00D39C000000000000000038C6DBDEDBDE82
:10118E00DBDEDBDEDBDEDBDEDBDEDBDEDBDEDBDE89
:10119E00DBDEDBDEDBDEDBDEDBDEDBDEDBDEDBDE79
:1011AE00DBDEDBDEDBDEDBDEDBDEDBDEDBDEDBDE69
:1011BE00518C0000000000000000A210C739C73992
:1011CE00C739C739C739C739C739C739C739C73911
:1011DE00C739C739C739C739C739C739C739C73901
:1011EE00C739C739C739C739C739C739C739C739F1
:1011FE004108000000000000000000000000000098
:10120E0000000000000000000000000000000000D0
:10121E0000000000000000000000000000000000C0
:10122E0000000000000000000000000000000000B0
:08123E000000000000000000A8
:103F1A00C283E4FEEEC39408748094805015C2975D
:103F2A00EF30E704D2B08002C2B0D297EF25E0FFAB
:053F3A000E80E1D283BE
:013F3F00225F
:06408C00D281123F1A224E
:10401F00AD07AC06D281ECFF123F1AAF05123F1A63
:01402F00226E
:06409200C281123F1A2258
:103B1400900033EEF0A3EFF0A3ECF0A3EDF07F2AD6
:103B2400124092900034E02401FF900033E034000E
:103B3400FE12401FEB2401FFE43AFE12401F7F2BCC
:103B4400124092900036E0241AFF900035E03400D1
:103B5400FE12401F90003AE0241AFF900039E0342E
:0B3B640000FE12401F7F2C1240922236
:10257000C285C2847FC87E00120003D2847F2C7E75
:10258000011200037F361240927F7812408C7F3A0E
:102590001240927F0512408C7FB21240927F0C1243
:1025A000408C7F0C12408CE4FF12408C7F33124031
:1025B0008C7F3312408C7FB71240927F3512408C53
:1025C0007FBB1240927F1912408C7FC01240927FD5
:1025D0002C12408C7FC21240927F0112408C7FC32C
:1025E0001240927F1212408C7FC41240927F2012C0
:1025F000408C7FC61240927F0F12408C7FD01240D9
:10260000927FA412408C7FA112408C7FE0124092F6
:102610007FD012408C7F0412408C7F0D12408C7F43
:102620001112408C7F1312408C7F2B12408C7F3F05
:1026300012408C7F5412408C7F4C12408C7F1812B9
:10264000408C7F0D12408C7F0B12408C7F1F1240FC
:102650008C7F2312408C7FE11240927FD012408CFD
:102660007F0412408C7F0C12408C7F1112408C7FB3
:102670001312408C7F2C12408C7F3F12408C7F4481
:1026800012408C7F5112408C7F2F12408C7F1F1282
:10269000408C7F1F12408C7F2012408C7F23124081
:1026A0008C7F211240927F11124092E49000FFF043
:0D26B000A3F0FFFE123B6F7F291240922223
:083B6F0090000AEEF0A3EFF054
:103B7700900039E4F0A3744FF07B9F7A00E4FDFCDA
:103B8700FFFE123B14E490000CF0A3F0E4FBFA9064
:103B9700000AE0FEA3E0FF12401F0BBB00010AEB87
:103BA70064504A70EA90000CE475F001121B61C37F
:0E3BB70090000DE094A090000CE0940040CE31
:013BC50022DD
:1026BD00900018EEF0A3EFF0A3ECF0A3EDF0A3EB78
:0126CD00F01C
:1026CE00A3E0FF7E006410700C7BFF7A0D79C6903C
:1026DE000022121DC9EF64184E700C7BFF7A04792C
:1026EE002E900022121DC9EF64204E700C7BFF7AD3
:1026FE000379AE900022121DC990001AE0FCA3E0EF
:10270E00FD90001DE0F9FF7E00900018E0FAA3E0B6
:10271E002FFFEE3ACF24FFFBEF34FFFAE9FFA3E0E1
:10272E00F8A3E02FFFEE38CF24FFCF34FF9000390F
:10273E00F0A3EFF0900018E0FEA3E0FF123B149020
:10274E00001DE0F5F0A4AEF07803CEC313CE13D87F
:10275E00F9900025F0E0FF90001CE08FF0A4FF90B0
:10276E000023E5F08FF0121B61E4900021F0900041
:10277E0025E0FF900021E0C39F506EE4900020F012
:10278E00900020E0C3940874809480504A900022F8
:10279E00121DA9121AE7FD7C00900020E0FF7E00BA
:1027AE007401A807088005C333CE33CED8F9FFEEE7
:1027BE005CFEEF5D4E600D90001EE0FEA3E0FF128A
:1027CE00401F800B9000FFE0FEA3E0FF12401F9021
:1027DE000020E004F080A9900023E475F001121BA4
:0927EE0061900021E004F08085F7
:0127F70022BF
:102B510090001CEBF0900018EEF0A3EFF0A3ECF066
:032B6100A3EDF0F1
:102B64007BFF7A00792E900021121DC990002574F4
:102B740010F07920C006C007E0FF7E00900018E046
:102B8400FAA3E02FFFEE3ACF24FFFBEF34FFFAE97C
:102B9400FFA3E0F8A3E02420FFEE38CF24FFCF34D6
:102BA400FF900039F0A3EFF0D007D006123B149049
:102BB4000025E075F020A4AEF07803CEC313CE1345
:102BC400D8F9900024F0E0FF90001CE08FF0A4FFFF
:102BD400900022E5F08FF0121B61E4900020F09049
:102BE4000024E0FF900020E0C39F506EE490001F9B
:102BF400F090001FE0C3940874809480504A9000C1
:102C040021121DA9121AE7FD7C0090001FE0FF7E2F
:102C1400007401A807088005C333CE33CED8F9FF6A
:102C2400EE5CFEEF5D4E600D90001DE0FEA3E0FF44
:102C340012401F800B9000FFE0FEA3E0FF12401F34
:102C440090001FE004F080A9900022E475F00112C6
:0A2C54001B61900020E004F0808571
:012C5E002253
:10241700900070EEF0A3EFF0A3ECF0A3EDF0A3EBC8
:01242700F0C4
:10242800A3E064107012A3E06410700C7BFF7A0DB7
:1024380079C690007B121DC9900075E0FF13131335
:10244800541FFEEF54072E60067E007F0180047E35
:10245800007F0090007EEEF0A3EFF0900070E0FAAD
:10246800A3E0FBFFAE02C006C007A3E0FCA3E0FDAB
:1024780090007EE0FEA3E07803C333CE33CED8F9D4
:10248800FF2BFFEA3ECF24FFFBEF34FFFA900076E4
:10249800E0FF7E00900072E0F8A3E02FFFEE38CF57
:1024A80024FFCF34FF900039F0A3EFF0D007D00617
:1024B800123B14900076E0FF7E0090007EE0FCA3C3
:1024C800E0FD121B4FA3EEF0FCA3EFF0FD900074AB
:1024D800E0FF7E00121B4F90007CEE8FF0121B6114
:1024E800E490007AF090007AE0FFD3900081E09FBA
:1024F800900080E09400406FE4900079F0900079BB
:10250800E0C3940874809480504A90007B121DA9FF
:10251800121AE7FD7C00900079E0FF7E007401A8A4
:1025280007088005C333CE33CED8F9FFEE5CFEEF43
:102538005D4E600D900077E0FEA3E0FF12401F8023
:102548000B9000FFE0FEA3E0FF12401F900079E02F
:1025580004F080A990007CE475F001121B619000E2
:072568007AE004F00224ED0B
:01256F002249
:103E300090002DEEF0A3EFF0900031EAF0A3EBF04C
:103E400090002FECF0A3EDF090002DE0FAA3E0FB42
:103E5000FFAE02C007A3E0FFA3E0900039CFF0A3BC
:103E6000EFF0D007123B14900031E0FEA3E0FF1208
:033E7000401F22CE
:103AB2009000EBEEF0A3EFF09000EFEAF0A3EBF052
:103AC2009000EDECF0A3EDF09000EBE0FAA3E0FB48
:103AD20024FFFFEA34FFFEC006C007ED24FFFDEC21
:103AE20034FFFCEB2401FBE43AFAA3E0FEA3E0245A
:103AF20001FFE43E90002AF0A3EFF09000EFE0FF18
:103B0200A3E090002CCFF0A3EFF0D007D00612363E
:023B12009F22F0
:10369F00900024EEF0A3EFF0A3ECF0A3EDF0A3EA7B
:0436AF00F0A3EBF0A9
:1036B300C007A3E0FFA3E0900039CFF0A3EFF0D061
:1036C30007123B14900026E0FFA3E090002ECFF0FA
:1036D300A3EFF090002AE0FEA3E0FFD390002FE0D9
:1036E3009F90002EE09E5035900024E0FEA3E0FB67
:1036F300AA06C3900029E09B900028E09A4012900C
:10370300002CE0FEA3E0FF12401F0BBB00010A8068
:0D371300E190002EE475F001121B6180B6FC
:013720002286
:0E208D0090003BEEF0A3EFF0A3ECF0A3EDF01B
:10209B00E4900047F0A3F0A3F0A3F090003BE0FE28
:1020AB00A3E0FFC3EB9FFFEA9ECF2401CF34009048
:1020BB00004BF0A3EFF090003DE0FAA3E0FBC390E0
:1020CB000042E09BFF900041E09ACF2401CF340007
:1020DB0090004DF0A3EFF090003BE0A3E0FF9000E9
:1020EB0055EEF0A3EFF0A3EAF0A3EBF090004BE07A
:1020FB00FEA3E0FFD39400EE64809480400A90002E
:10210B0051E4F0A304F08021EF4E7008900051F0E1
:10211B00A3F0801574FF900051F0A3F0C3E49FFF70
:10212B00E49E90004BF0A3EFF090004DE0FEA3E097
:10213B00FFD39400EE64809480400A900053E4F047
:10214B00A304F08027EF4E7008900053F0A3F080AB
:10215B001B74FF900053F0A3F090004BE0FEA3E044
:10216B00FFC3E49FFFE49EA3F0A3EFF090004DE0CC
:10217B00FEA3E0FF90004BE0FCA3E0FDD39FEE64D9
:10218B0080F8EC648098400A90004FECF0A3EDF0DF
:10219B00800890004FEEF0A3EFF0E4900045F0A321
:1021AB00F0900050E02401FF90004FE03400FEC39C
:1021BB00900046E09F900045E09E400302229090E5
:1021CB000055E0FEA3E0FFA3E0FCA3E0FD9000437D
:1021DB00E0FAA3E0FB123E3090004BE0FEA3E0FFE1
:1021EB00900047EE8FF0121B6190004DE0FEA3E0D4
:1021FB00FF900049EE8FF0121B6190004FE0FEA3A1
:10220B00E0FF900047E0FCA3E0FDD39FEE6480F875
:10221B00EC648098402390004FE0A3E0ED9FFFEC2F
:10222B009E900047F0A3EFF0900051E0FEA3E0FF7B
:10223B00900055EE8FF0121B6190004FE0FEA3E073
:10224B00FF900049E0FCA3E0FDD39FEE6480F8EC27
:10225B00648098402390004FE0A3E0ED9FFFEC9E3D
:10226B00900049F0A3EFF0900053E0FEA3E0FF9045
:10227B000057EE8FF0121B61900045E475F00112D0
:05228B001B610221AC03
:01229000222B
:103049009000D6EAF0A3EBF09000D2EEF0A3EFF0F7
:10305900A3ECF0A3EDF0C007A3E0FAA3E0FB900016
:10306900D4E0FFA3E0900041CFF0A3EFF09000DAA5
:10307900E0FFA3E0900043CFF0A3EFF0D0071220C8
:103089008D9000D2E0FAA3E0FBFFAE02C007A3E0F7
:10309900FCA3E0FD9000D8E0FFA3E0900041CFF051
:1030A900A3EFF09000DAE0FFA3E0900043CFF0A394
:1030B900EFF0D00712208D9000D8E0FCA3E0FD903E
:1030C90000D6E0FAA3E0FBA3E0FFA3E0900041CF24
:1030D900F0A3EFF09000DAE0FFA3E0900043CFF017
:1030E900A3EFF09000D2E0FEA3E0FF12208D900044
:1030F900D6E0FAA3E0FBFFAE02C0079000D4E0FCE3
:10310900A3E0FD9000D8E0FFA3E0900041CFF0A339
:10311900EFF09000DAE0FFA3E0900043CFF0A3EFD7
:07312900F0D00712208D22F7
:101E66009000BDEEF0A3EFF0A3ECF0A3EDF0A90314
:101E7600E49000C4F0A3F0E9FFA3E4F0A3EFF09030
:101E860000C6E0FEA3E0FFD39000C5E09FEE6480AD
:101E9600F89000C4E0648098400302208CC3900050
:101EA600BEE09FFF9000BDE09EFE9000C4E0FCA354
:101EB600E0FDC39000C0E09DFD9000BFE09CFC905B
:101EC60000C2E0FAA3E0FB123E309000C6E0FEA39B
:101ED600E0FF9000BEE02FFF9000BDE03EFE9000C8
:101EE600C4E0FCA3E0FDC39000C0E09DFD9000BFF0
:101EF600E09CFC9000C2E0FAA3E0FB123E309000AA
:101F0600C4E0FEA3E0FFC39000BEE09FFF9000BDCB
:101F1600E09EFE9000C6E0FCA3E0FD9000C0E02D30
:101F2600FD9000BFE03CFC9000C2E0FAA3E0FB128B
:101F36003E309000C4E0FEA3E0FFC39000BEE09FE9
:101F4600FF9000BDE09EFE9000C6E0FCA3E0FDC34E
:101F56009000C0E09DFD9000BFE09CFC9000C2E0B8
:101F6600FAA3E0FB123E309000C6E0FEA3E0FF902D
:101F760000BEE02FFF9000BDE03EFE9000C4E0FCF6
:101F8600A3E0FD9000C0E02DFD9000BFE03CFC907A
:101F960000C2E0FAA3E0FB123E309000C4E0FEA3CC
:101FA600E0FF9000BEE02FFF9000BDE03EFE9000F7
:101FB600C6E0FCA3E0FDC39000C0E09DFD9000BF1D
:101FC600E09CFC9000C2E0FAA3E0FB123E309000D9
:101FD600C4E0FEA3E0FF9000BEE02FFF9000BDE04E
:101FE6003EFE9000C6E0FCA3E0FD9000C0E02DFDA3
:101FF6009000BFE03CFC9000C2E0FAA3E0FB123E7A
:10200600309000C6E0FEA3E0FFC39000BEE09FFF55
:102016009000BDE09EFE9000C4E0FCA3E0FD9000B1
:10202600C0E02DFD9000BFE03CFC9000C2E0FAA3AA
:10203600E0FB123E309000C4E475F001121B619083
:1020460000C6E0FCA3E0FDFFAE04121B4FAA06ABE0
:10205600079000C4E0FCA3E0FDFFAE04121B4FEFA7
:102066002BFDEE3AFCE9F5F0A4FFD3ED9FE5F06415
:1020760080F8EC6480985003021E85A374FFF5F087
:06208600121B61021E8521
:01208C002231
:10229100900023ECF0A3EDF0A3EBF0900021EEF021
:0322A100A3EFF0B8
:1022A40090002BEEF0A3EFF0D39498EE940040034B
:1022B400022416900023E0FCA3E0FD9448EC940073
:1022C4004003022416A3E024E0F0900021E0FAA3E6
:1022D400E0FBFFAE02C006C0072407FBE43AFAA302
:1022E400E0FEA3E0240FFFE43E900039F0A3EFF0FA
:1022F400D007D006123B14900026E0600302239816
:10230400F9E9C39410748094804003022416900069
:1023140025E075F010A4FFE97C002FFFEC35F0FEFA
:1023240074D62FF58274073EF583E493900029F068
:10233400E4A3F090002AE0C3940874809480503998
:10234400900029E030E00D900027E0FEA3E0FF12AA
:10235400401F800B9000FFE0FEA3E0FF12401F909F
:102364000029E0FFC313F0900021E475F001121B73
:102374006190002AE004F080BA90002BE0FFA3E013
:10238400900021CFF0A3EFF0A3E475F001121B61DC
:1023940009022305E4F9E9C394107480948050720F
:1023A400900025E075F010A4FFE97C002FFFEC35C8
:1023B400F0FE74D62FF58274073EF583E493900003
:1023C40029F0E4A3F090002AE0FFC39408748094F9
:1023D40080503C900029E030E027900022E02FFF5D
:1023E400900021E03400FEE9FD900024E02DFD90F2
:1023F4000023E03400FC900027E0FAA3E0FB123E47
:1024040030900029E0FFC313F0A3E004F080B60984
:022414008084C2
:0124160022A3
:102E5F00900025ECF0A3EDF0A3EBF0900023EEF043
:032E6F00A3EFF0DE
:102E720090002DEEF0A3EFF0D39498EE940040036F
:102E8200022F56900025E0FCA3E0FD9448EC94004C
:102E92004003022F56A3E024E0F0900023E0FAA3BF
:102EA200E0FBFFAE02C006C0072407FBE43AFAA328
:102EB200E0FEA3E0240FFFE43E900039F0A3EFF020
:102EC200D007D006123B14E4FBEBC3941074809439
:102ED200804003022F56900027E075F010A4FFEB0C
:102EE2007C002FFFEC35F0FE74D62FF58274073E7E
:102EF200F583E493F9900028E064017003E9F4F9A2
:102F0200E4FAEAC3940874809480502DE930E00D0D
:102F120090002BE0FEA3E0FF12401F800B900029DF
:102F2200E0FEA3E0FF12401FE9C313F9900023E47F
:102F320075F001121B610A80C990002DE0FFA3E029
:102F4200900023CFF0A3EFF0A3E475F001121B6110
:042F52000B022ECB75
:012F56002258
:10372100900018EEF0A3EFF0A3ECF0A3EDF0A312DC
:103731001DC990001C121DA9121AE7FB605FD390EE
:103741000019E09498900018E09400400BE4F0A375
:10375100F0A375F010121B6190001AE0FCA3E0FDCC
:10376100D39448EC94005035E4900026F090001F6B
:10377100E0FFA3E0900027CFF0A3EFF0900018E066
:10378100FEA3E0FF122291900018E475F008121BCD
:0E3791006190001DE475F001121B618095220D
:10358400900018EEF0A3EFF0A3ECF0A3EDF0A3127B
:103594001DC990001C121DA9121AE7FB606FD3907D
:1035A4000019E09498900018E09400400BE4F0A314
:1035B400F0A375F010121B6190001AE0FCA3E0FD6B
:1035C400D39448EC940050459000287401F0900086
:1035D4001FE0FFA3E0900029CFF0A3EFF0900021BB
:1035E400E0FFA3E090002BCFF0A3EFF0900018E0F1
:1035F400FEA3E0FF122E5F900018E475F008121B82
:0E3604006190001DE475F001121B61808522AB
:083EB4009000F1EFF0A3EDF026
:103EBC00A3121D78000000019000F2E0FF14F0EF57
:103ECC006018A3121D409000F1E0FFE4FCFDFE120F
:103EDC001BC89000F3121D6C80DE9000F3121D3491
:013EEC0022B3
:102D66009000B1EEF0A3EFF0A3ECF0A3EDF0A3EA30
:042D7600F0A3EBF0EB
:102D7A00E49000BCF09000BAF09000B7E0FF900039
:102D8A00BAE0FEC39F4003022E5EC3EF9E14FD7F8E
:102D9A000A123EB4A804A905AA06AB079000B5E03A
:102DAA00FEA3E0FFE4FCFD121C53E47B0AFAF9F8E7
:102DBA00121C539000BBEBF0A3E0704F9000B7E0F9
:102DCA0014FF9000BAE0FEC39F5040A3E07036EEB5
:102DDA0075F008A4FF9000B2E02FFF9000B1E03533
:102DEA00F0FE9000B3E0FCA3E0FDE4900026F09032
:102DFA0000B8E0FBA3E0900027CBF0A3EBF07B2028
:102E0A0012229180469000BC7401F09000BAE075DD
:102E1A00F008A4FF9000B2E02FFF9000B1E035F077
:102E2A00FEC0079000B3E0FCA3E0FD9000BBE024E5
:102E3A0030FBE4900026F09000B8E0FFA3E0900099
:102E4A0027CFF0A3EFF0D0071222919000BAE00446
:042E5A00F0022D83D2
:012E5E002251
:0E2A3B00900082EEF0A3EFF0A3ECF0A3EDF01C
:102A4900E490008FF0FFFE7DC87C42900086121D45
:102A590040121960121A66900090EEF0A3EFF0E4AC
:102A690090008DF090008AE0FF90008DE0FEC39FFA
:102A79004003022B50C3EF9E14FD7F0A123EB4A8F7
:102A890004A905AA06AB07900090E0FEA3E0FFE4C5
:102A9900FCFD121C53E47B0AFAF9F8121C5390004E
:102AA9008EEBF090008AE0FF24FEFE90008DE06E30
:102AB900704CEF24FEFFE434FFFEEF7803C333CEFE
:102AC90033CED8F9FF900083E02FFF900082E03EDB
:102AD900FE900084E0FCA3E0FDE4900026F0900065
:102AE9008BE0FBA3E0900027CBF0A3EBF07B2E1249
:102AF900229190008DE004F090008AE004F09000AB
:102B09008DE075F008A4FF900083E02FFF9000820C
:102B1900E035F0FEC007900084E0FCA3E0FD9000E2
:102B29008EE02430FBE4900026F090008BE0FFA3B8
:102B3900E0900027CFF0A3EFF0D007122291900088
:072B49008DE004F0022A6D8B
:012B50002262
:10320900900024121DC9900027ECF0FEA3EDF0FFF9
:10321900C007A3E0FCA3E0FDA3E0FAA3E0FBA3E061
:10322900FFA3E0900039CFF0A3EFF0D007123B14D1
:10323900900029E0FEA3E0FFC390002EE09FFF90DD
:10324900002DE09ECF2401FDE43FFC900027E0FE25
:10325900A3E0FFC390002CE09FFF90002BE09ECFDE
:103269002401CF3400FE121B4F90002FEEF0A3EF84
:10327900F0E4FDFCD3900030E09DEC6480F8900010
:103289002FE0648098403EED25E0FFEC33FEEF240B
:1032990001FFE43EFE900024121DA98F828E831245
:1032A9001B00FF12408CED25E0FFEC33FE9000245B
:1032B900121DA98F828E83121B00FF12408C0DBD37
:0532C90000010C80AFC4
:0132CE0022DD
:103892009000E4EEF0A3EFF0A3ECF0A3EDF0EF2440
:1038A20004FFE43EFEC007E4900026F09000E9E049
:1038B200FFA3E0900027CFF0A3EFF0D007122291F0
:1038C2009000E4E0FAA3E0FBFFAE02C006C007A34B
:1038D200E0FCA3E0FDEB2410FBE43AFA9000E6E002
:1038E200FEA3E02410FFE43E9000D8F0A3EFF09096
:1038F20000E9E0FFA3E09000DACFF0A3EFF0D007F9
:06390200D006123049223C
:103BF5004200A0000042009D0000410098004500E1
:0E3C050093000000000041009F00410092006B
:103F630090001DEEF0A3EFF090001DE07002A3E0BF
:0E3F7300600C90001D74FFF5F0121B6180EAD7
:013F8100221D
:103F8200D293D2947F017E00123F63C2937F787EE8
:0E3F920005123F63D2937F017E00123F63222F
:103FDA00D2947F017E00123F63D293123F63C29450
:093FEA00123F63C293123F6322EF
:103F40007F02C293D2941F7E00123F63D293123F2E
:103F500063A294E433600122C2937F017E00123F8A
:023F6000631FDD
:013F6200223C
:02379F00A90778
:1037A100E4FDFC90001BF0A3F090009FE004F07D8D
:1037B10007C29390001BE0A3E0FF7E007480A8077E
:1037C100088006CEA2E713CE13D8F8FFE9FBE4FE8A
:1037D100EF5BAB05A803088006CEA2E713CE13D892
:1037E100F84E600BD2947F017E00123F638009C2C4
:1037F100947F017E00123F63D2937F017E00123FCE
:103801006390001BE475F001121B61ED1D70011C3A
:09381100BCFF9EBDFF9B123F406D
:01381A00228B
:103EED00AD07C2937F017E00123F63ED7007C29450
:103EFD00123F638009D2947F017E00123F63D293FB
:0D3F0D007F017E00123F63C293123F6322CA
:023C1C00AD07F2
:103C1E00E4FCFBD2947C07EC3395E0C36480948083
:103C2E004021C2937F027E00123F63D293123F6304
:103C3E0030940DA8047401088002C333D8FC4BFBEA
:103C4E001C80D4C293ED6004C2948002D2947F0291
:103C5E007E00123F63D293123F63C2931F123F63E3
:023C6E00AF03A2
:013C70002231
:10400B00C2947F017E00123F63D293123F63D2941E
:04401B00123F6322CB
:0B3DA50090001B121DC990001EEDF0E5
:103DB000E4FE90001EE0FD14F0ED602D90001BE489
:103DC00075F001121DB2121AE76EFEE4FFEFC39404
:103DD000087480948050DBEE30E70725E06407FE2E
:0B3DE0008004EE25E0FE0F80E4AF063B
:013DEB0022B5
:10390800E490000AF0A3F0A3F0A3F0A3F0A3F0FA68
:10391800123FDAE4FF12379FEF70417F2E12379F74
:10392800EF7035123FDA7F0112379FEF70267F0163
:10393800123C1C90000AE4F0A3EFF07F01123C1C3B
:1039480090000CE4F0A3EFF0E4FF123C1CAA07126D
:10395800400B800CE4FEFF22E4FEFF22E4FEFF227F
:1039680090000AE0FEA3E0FF90000EEEF0A3EFF057
:01397800222C
:103C7100E4FAEFD3947F7480948040037F0122E4BF
:103C8100900093F0A3742EF0A3EFF0E4A3F07B0176
:103C91007A0079937D04123DA5900097EFF0123FD1
:103CA100DAE4FAEAC3940574809480501274932A7A
:103CB100F582E43400F583E0FF12379F0A80E412B5
:043CC100400B7F0035
:013CC50022DC
:02338C00AA078E
:10338E00E4900016F0A3F0A3F0A3F0ED6401700634
:10339E00A37406F0800690001A7407F0123FDAEA62
:1033AE0025E0FF12379F90001AE0FF12379F123F61
:1033BE00DAEA25E04401FF12379F7F01123C1C9090
:1033CE000018EFF07F01123C1C900019EFF0E4FFA3
:1033DE00123C1CAC0712400BAF02EF25E09000939D
:1033EE00F090001AE0900094F0900093E044019069
:1033FE000095F0900018E0900096F0900019E09083
:10340E000097F07B017A0079937D05123DA590001F
:10341E0098EFF0AE046E6004E4F0800690009874AD
:10342E0001F0900019E0FE900018E0FDEEEDFF9027
:07343E000016EEF0A3EFF011
:013445002264
:023A4F00AA07C4
:103A5100E490000AF0A3F0A3F0A3F0FFFEA3F0129C
:103A61003FDAEA25E0FF12379F7F2412379F123F8A
:103A7100DAAF02EF25E004FF12379F7F01123C1CF1
:103A810090000AE4F0A3EFF07F01123C1C90000CBF
:103A9100E4F0A3EFF0E4FF123C1C90000EEFF012F3
:103AA100400B90000DE0FE90000AE04EFEA3E0FF07
:013AB10022F2
:0539E80090000AEFF061
:1039ED007F007EFF7D7F7C47A3121D401219601260
:1039FD001A66AD07AC06E4FA90000AE0FF25E090E8
:103A0D000093F0A37424F0EDA3F0EEA3F07B017A04
:103A1D000079937D04123DA5900097EFF0123FDAE7
:103A2D00E4FAEAC3940574809480501274932AF5D5
:103A3D0082E43400F583E0FF12379F0A80E41240E0
:013A4D000B6D
:013A4E002255
:103446001239089000A0EEF0A3EFF090009DE4F092
:10345600A37419F06F4E6024E4FF123C717F107E56
:1034660027123F6390009DE0A3E0FF123C71EF60DE
:103476000B1239089000A0EEF0A3EFF07FE87E0370
:10348600123F631239089000A0EEF0A3EFF0123A53
:103496004F9000A0E0A3E0FFC00790000B121D783C
:1034A60000000000D0071239E87FD07E07123F6384
:1034B6009000A0E0A3E0FF123A4F9000A0E0A3E046
:1034C600FFC00790000B121D783F666666D0071294
:1034D60039E89000A0E0A3E0FF123A4F7FD07E07C4
:0334E600123F632F
:0134E90022C0
:062F570090000A121DC9E2
:102F5D0090000D7401F0900092E070047F018002EA
:102F6D007F00900092EFF0FD9000A0E0A3E0FF1233
:102F7D00338CE4FCFD90000E121D6C900098E070F7
:102F8D000790000DF0023018E47F02FEFDFC90006A
:102F9D000E121D40121BC8EF244DFFEE3495FEEDB1
:102FAD0034FFFDEC34FFFCE47B0AFAF9F8123DEC3A
:102FBD00900012121D6C7FF17ED87DFF7CFF90007A
:102FCD0012121D40C3121CF3500A900012121D78EC
:102FDD00FFFFD8F1E47F0F7E27FDFC900012121D3C
:102FED0040D3121CF3400A900012121D78000027E6
:102FFD000F900012121D34900092E025E02499F5F7
:10300D0082E43400F583EEF0A3EFF0900092E0FF40
:10301D0025E02499F582E43400F583E0FCA3E0FD7E
:10302D0090000A121DA975F002EFA4F58285F083B8
:0B303D00EC8DF0121B8D90000DE0FFE9
:013048002265
:083C13004100FD004100FE002C
:103FA000E4900101F0900101E0C3940574809480D5
:0D3FB000500B1232CF900101E004F080E8C8
:013FBD0022E1
:1032CF00E59020E5147F027E00120003E59020E5D3
:1032DF00047F0180027F0080027F00EF6009900071
:1032EF00FEE04401F080079000FEE054FEF0E59010
:1032FF0020E2147F027E00120003E59020E2047F9B
:10330F000180027F0080027F00EF60099000FEE0E5
:10331F004402F080079000FEE054FDF09000FEE0C4
:10332F00FF30E0149000FDE030E0047E0280027E6A
:10333F00019000FBEEF080129000FDE030E0047E83
:10334F000580027E009000FBEEF0EF30E11490005C
:10335F00FDE030E1047F0280027F019000FCEFF07E
:10336F0080129000FDE030E1047F0580027F009025
:0D337F0000FCEFF09000FEE09000FDF02259
:103E73009000FBE06401701F900068E0FFC39401B1
:103E83007480948040067E007F008003EF04FF90DF
:103E93000068EFF01240309000FCE0640170119074
:103EA3000069E070047F0180027F00900069EFF0F9
:013EB30022EC
:074085001232CF123E73223C
:04407D008F828E831D
:03408100E493FFC6
:014084002219
:0A2C5F009000DE121DC9AD07AC069F
:102C6900C2AFAB058BA6ECFFF5A775AEFFA2AF927D
:102C790000C2AF75C7AA75C755439F01A20092AF9D
:102C8900A2AF9200C2AF75C7AA75C75543A501A2E5
:102C99000092AF75AF22A2AF9200C2AF75C7AA75F5
:102CA900C75543A401A20092AF9000E2EBF0E0C344
:102CB9009480748094805004E4F080069000E2745B
:102CC90080F09000E2E0F5A68FA7A2AF9200C2AF14
:102CD90075C7AA75C755439F01A20092AFA2AF92CB
:102CE90000C2AF75C7AA75C75543A501A20092AF27
:102CF90075AF21E4A3F09000E1E0FF9000E3E0C3A9
:102D09009F50319000DE121DA99000E3E0F5827515
:102D19008300121B00F5AEA2AF9200C2AF75C7AA1D
:102D290075C75543A401A20092AF05A69000E3E040
:102D390004F080C2A2AF9200C2AF75C7AA75C75589
:102D490053A5FEA20092AFA2AF9200C2AF75C7AA67
:0C2D590075C755539FFEA20092AFD2AF89
:012D6500224B
:030000000234EADD
:1034EA00787FE4F6D8FD9000007FFF7E03E4F0A326
:0A34FA00DFFCDEFA75812002353F89
:10196000EC4D6011E8497017ED33EC3304600DE481
:10197000FCFFFEFD22E933E8330470F8021AD212AC
:101980001A9D58046009E4CC2481500628500902AD
:101990001ADC284003021AD9C0E0EB4A7044B9802F
:1019A00006D0E0FB021AC8EF4E701CBD8008EBFFAA
:1019B000EAFEE9FD80EBE98DF0A4FEE5F0021A49AC
:1019C000E9CDF9EAFEEBFFEF89F0A4FCE5F0CE8962
:1019D000F0A42EFFE435F0CD89F0A42DFEE435F01F
:1019E0008067EF4E7005BD80D780C3EF8BF0A4AC4D
:1019F000F0EE8BF0A42CFCE435F0F8EF8AF0A42C88
:101A0000E5F038FCE433CB8DF0A42CFCE5F03BF89A
:101A1000EE8AF0A42CFCE5F038F8E433CF89F0A48A
:101A20002CFCE5F038CF3400CE89F0A42FFFE5F090
:101A30003EFEE433C98DF0A42EFEE5F039CD8AF0E8
:101A4000A42FFFE5F03EFEE43DFD33D0E0FB500760
:101A50000BBB000F021ADCEC2CFCEF33FFEE33FE65
:061A6000ED33FD021AB493
:101A6600EDD2E7CD33EC3392D524814006E4FFFE78
:101A7600FDFC22FCE4CFCECDCC24E0501174FF80D7
:101A8600EDC3CC13CCCD13CDCE13CECF13CF047074
:071A9600F030D5DE021CE573
:101A9D00E9D2E7C933E833F892D5EDD2E7CD33EC8F
:071AAD0033FC5002B2D52208
:101AB400EC30E7100FBF000C0EBE00080DBD000493
:101AC4000BEB6014A2D5EB13FCED92E7FD2274FF3F
:101AD400FCFDFEFF22E480F8A2D574FF13FC7D8098
:031AE400E480EFAC
:103504000227F8E493A3F8E493A34003F68001F2BE
:1035140008DFF48029E493A3F85407240CC8C333C8
:10352400C4540F4420C8834004F456800146F6DF97
:10353400E4800B0102040810204080903BC6E47E26
:10354400019360BCA3FF543F30E509541FFEE4938C
:10355400A360010ECF54C025E060A840B8E493A353
:10356400FAE493A3F8E493A3C8C582C8CAC583CA7E
:10357400F0A3C8C582C8CAC583CADFE9DEE780BE36
:013C1B0000A8
:101AE700BB010689828A83E0225002E722BBFE02FD
:091AF700E32289828A83E4932230
:101B0000BB010CE58229F582E5833AF583E022509A
:101B100006E92582F8E622BBFE06E92582F8E222E4
:0D1B2000E58229F582E5833AF583E49322FE
:101B2D00F8BB010DE58229F582E5833AF583E8F0EE
:101B3D00225006E92582C8F622BBFE05E92582C89A
:021B4D00F22282
:101B4F00EF8DF0A4A8F0CF8CF0A428CE8DF0A42EAA
:021B5F00FE2264
:101B6100C5F0F8A3E028F0C5F0F8E582158270020F
:061B71001583E038F022AC
:101B7700A3F8E0C5F025F0F0E58215827002158321
:061B8700E0C838F0E8227E
:101B8D00F8BB0111E58229F582E5833AF583E8F08A
:101B9D00E5F0A3F0225009E92582C8F608A6F02247
:0D1BAD00BBFE09E92582C8F2E5F008F2222E
:0E1BBA00C3EF9BFFEE9AFEED99FDEC98FC2226
:101BC800E88FF0A4CC8BF0A42CFCE98EF0A42CFCBC
:101BD8008AF0EDA42CFCEA8EF0A4CDA8F08BF0A43A
:101BE8002DCC3825F0FDE98FF0A42CCD35F0FCEB99
:101BF8008EF0A4FEA9F0EB8FF0A4CFC5F02ECD395E
:0F1C0800FEE43CFCEAA42DCE35F0FDE43CFC22CA
:101C170075F008758200EF2FFFEE33FECD33CDCC84
:101C270033CCC58233C5829BED9AEC99E582984007
:101C37000CF582EE9BFEED9AFDEC99FC0FD5F0D6E4
:101C4700E4CEFBE4CDFAE4CCF9A88222B800C1B90E
:101C57000059BA002DEC8BF084CFCECDFCE5F0CB4C
:101C6700F97818EF2FFFEE33FEED33FDEC33FCEB85
:101C770033FB10D703994004EB99FB0FD8E5E4F940
:101C8700FA227818EF2FFFEE33FEED33FDEC33FC2D
:101C9700C933C910D7059BE99A4007EC9BFCE99A21
:101CA700F90FD8E0E4C9FAE4CCFB2275F010EF2F66
:101CB700FFEE33FEED33FDCC33CCC833C810D70766
:101CC7009BEC9AE899400AED9BFDEC9AFCE899F8A1
:0E1CD7000FD5F0DAE4CDFBE4CCFAE4C8F92234
:103DEC00C2D5E830E70FB2D5E4C39BFBE49AFAE402
:103DFC0099F9E498F8EC30E717B2D5123E22121C70
:103E0C0053E4C39BFBE49AFAE499F9E498F8800331
:103E1C00121C5330D50DE4C39FFFE49EFEE49DFDC0
:043E2C00E49CFC22F4
:0E1CE500C3E49FFFE49EFEE49DFDE49CFC2210
:101CF300EB9FF5F0EA9E42F0E99D42F0EC6480C868
:061D030064809845F02207
:101D0900EB9FF5F0EA9E42F0E99D42F0E89C45F030
:011D190022A7
:101D1A00BB010789828A83021D6C5005E9F8021EFD
:0A1D2A004EBBFE05E9F8021E5A2226
:0C1D3400E0FCA3E0FDA3E0FEA3E0FF2222
:0C1D4000E0F8A3E0F9A3E0FAA3E0FB2226
:101D4C00BB010789828A83021D405005E9F8021EF7
:101D5C0024BBFE05E9F8021E3189828A83021E3EED
:0C1D6C00ECF0A3EDF0A3EEF0A3EFF022EA
:101D7800A8828583F0D083D082121D8F121D8F1206
:101D88001D8F121D8FE473E493A3C583C5F0C5832B
:101D9800C8C582C8F0A3C583C5F0C583C8C582C8B5
:011DA8002218
:091DA900E0FBA3E0FAA3E0F9223B
:101DB200F8E0FBA3A3E0F925F0F0E58215827002BA
:071DC2001583E0FA38F0225E
:091DC900EBF0A3EAF0A3E9F0221B
:101DD200D083D082F8E4937012740193700DA3A3A0
:101DE20093F8740193F5828883E4737402936860B4
:061DF200EFA3A3A380DFB4
:101DF800EF4E6012EF60010EEDBB010B89828A8302
:101E0800F0A3DFFCDEFA2289F05007F709DFFCA90E
:0C1E1800F022BBFEFCF309DFFCA9F02265
:0D1E2400E6FB08E6F908E6FA08E6CBF8222E
:0D1E3100E2FB08E2F908E2FA08E2CBF82231
:101E3E00E493F8740193F9740293FA740393FB22FA
:0C1E4E00ECF608EDF608EEF608EFF622C0
:0C1E5A00ECF208EDF208EEF208EFF222C4
:00000001FF
